:100000000C9434000C9446000C9446000C94480068
:100010000C9446000C946A000C9446000C94460024
:100020000C9446000C9446000C9446000C94460038
:100030000C9446000C9446000C9446000C94460028
:100040000C9446000C9446000C9446000C94460018
:100050000C9446000C9446000C9446000C94460008
:100060000C9446000C94460011241FBECFEFD8E03C
:10007000DEBFCDBF21E0A0E0B1E001C01D92A33002
:10008000B207E1F70E948C000C94A5000C940000CC
:100090001F920F920FB60F9211242F938F939F935D
:1000A00025B1909102019078892F90E095958795E0
:1000B0009595879595958795922F9F7D892B809310
:1000C000010185B99F918F912F910F900FBE0F90D5
:1000D0001F9018951F920F920FB60F9211242F9315
:1000E0008F939F9325B1909102019078892F90E092
:1000F000959587959595879595958795922F9F7D51
:10010000892B8093010185B99F918F912F910F9039
:100110000FBE0F901F9018951092000180E284B9D5
:100120001AB8259A539A95E09093680080936B00D3
:1001300088E080936D0078948091020188B9809165
:0E01400002018F5F80930201F7CFF894FFCF8A
:00000001FF
