S00B00003636362E7372656377
S11300000C9434000C9451000C9451000C94510045
S11300100C9451000C9451000C9451000C94510018
S11300200C9451000C9451000C9451000C94510008
S11300300C9451000C9451000C9451000C945100F8
S11300400C9451000C9451000C9451000C945100E8
S11300500C9453000C9451000C9451000C945100D6
S11300600C9451000C94510011241FBECFEFD8E022
S1130070DEBFCDBF11E0A0E0B1E0E4E3F1E002C0F7
S113008005900D92A831B107D9F721E0A8E1B1E0BC
S113009001C01D92AA31B207E1F70E9480000C94BE
S11300A098000C9400001F920F920FB60F92112427
S11300B08F939F93EF93FF9380911801909119016F
S11300C08731910564F40196909319018093180186
S11300D0FC01E050FF4F80818093C60008C010925D
S11300E0190110921801809100018093C600FF91BC
S11300F0EF919F918F910F900FBE0F901F901895C5
S113010087E690E09093C5008093C40088E48093D0
S1130110C10086E08093C20080911801909119017A
S1130120892B21F4809100018093C6007894FFCF3D
S1070130F894FFCF6D
S113013441746D656761333238503A52656164794C
S10B0144546F576F726B0A003F
S9030000FC
